:020000040800F2
:1000000090E301200904000869150108E1CE000809
:10001000D914010891270008E96B020800000000CC
:10002000000000000000000000000000F185010851
:10003000E13E000800000000C92C010821C90108A8
:1000400023040008230400082304000823040008F4
:100050002304000823040008F1490008F94A0008B5
:10006000514B000823040008994B0008813900080F
:10007000D1390008230400082304000823040008E1
:10008000213A000823040008230400082304000880
:1000900023040008230400082304000823040008A4
:1000A0002304000823040008230400082304000894
:1000B00023040008C1DA0108C9EE0108230400087E
:1000C0002304000823040008230400082304000874
:1000D0002304000823040008230400082304000864
:1000E000494A000823040008000000002304000817
:1000F0002304000823040008230400082304000844
:100100002304000823040008B1FF010823040008A9
:100110002304000823040008A1000208412E02085D
:100120002304000823040008230400082304000813
:100130002304000823040008230400082304000803
:1001400000000000000000000000000000000000AF
:1001500023040008713A00082304000849430208F8
:1001600023040008230400082304000823040008D3
:1001700023040008230400082304000800000000F2
:1001800023040008230400082304000823040008B3
:1001900023040008230400082304000823040008A3
:1001A0002304000823040008230400082304000893
:1001B0002304000823040008230400082304000883
:1001C0002304000823040008230400082304000873
:1001D00023040008B11501082304000823040008C3
:1001E0002304000823040008230400082304000853
:1001F0002304000823040008230400082304000843
:100200002304000823040008230400082304000832
:10021000F9C9010869CA010851D10108230400087D
:100220002304000823040008230400080000000041
:100230002304000823040008000000002304000831
:1002400023040008230400082304000823040008F2
:1002500023040008230400082304000823040008E2
:1002600023040008230400082304000823040008D2
:1002700023040008230400082304000800000000F1
:1002800023040008230400082304000800000000E1
:10029000000000002304000800F002F800F0A4F8B9
:1002A0000AA090E8000C82448344AAF10107DA45D1
:1002B00001D100F099F8AFF2090EBAE80F0013F07F
:1002C000010F18BFFB1A43F00103184718C40500BB
:1002D00068C405000A444FF0000C10F8013B13F00D
:1002E000070408BF10F8014B1D1108BF10F8015B8F
:1002F000641E05D010F8016B641E01F8016BF9D182
:1003000013F0080F1EBF10F8014BAD1C0C1B09D1D8
:100310006D1E58BF01F801CBFAD505E014F8016B4A
:1003200001F8016B6D1EF9D59142D6D370470000DC
:10033000103A24BF78C878C1FAD8520724BF30C811
:1003400030C144BF04680C607047000000230024E3
:1003500000250026103A28BF78C1FBD8520728BFD5
:1003600030C148BF0B607047662901F0D0A66529EF
:1003700001F0CDA6672901F0CAA6612901F0C9A63E
:10038000692900F02D81642900F02A81752900F087
:1003900027816F2900F0BE81782900F0E58103688C
:1003A000DB0928BF41F08001632901F05880E3296F
:1003B00001F06B80002070471FB541F0D9FD9DE82A
:1003C000030000F0FFFB01F081F904000020002190
:1003D00041F06AFD401C60600020002141F04EFDAC
:1003E000E0601FBD10B510BD01F02DFB1146FFF7F9
:1003F000E3FF32F06DFF01F0D5FD03B4FFF7F2FF2C
:1004000003BC01F005FE0000094880470948004789
:10041000FEE7FEE7FEE7FEE7FEE7FEE7FEE7FEE7B4
:10042000FEE7FEE704480549054A064B7047000011
:1004300079C901089902000890BC012090E30120CD
:1004400090C4012090C4012070B5064600F09AFBCC
:10045000056806F10B0020F00704B4429CBF0020A1
:1004600070BD2B466A68BAB11068A04210D304F17F
:10047000080188423CBF5068586007D35168101982
:1004800041601168091B016058601460101D70BD47
:1004900013465268002AE7D12146284600F07EFB29
:1004A0000028DED170BD70B50446051F00F06AFB60
:1004B0000068002C14BF446870BD002C18BFAC420B
:1004C0003CBF20466468F8D301680A18AA4218BFE6
:1004D000456003D12A680546114401602868411926
:1004E000A1421CBF6C6070BD6168696021680844EE
:1004F000286070BD0FB41CB5074B06AA7B44694643
:100500000090059800F089FF0020694600F098FFF0
:100510001CBC5DF814FB0000410F000070B50446E0
:1005200085690068C10601D5302600E02026C00795
:1005300007D070BDD4E9012130469047206A401CA5
:1005400020626D1EF6D570BD70B5044685690078D1
:10055000C00707D170BDD4E9012120209047206A4F
:10056000401C20626D1EF6D570BD09684A0501D594
:1005700040B27047C905FCD500B2704709684A050A
:1005800001D5C0B27047C905FCD580B2704770B5BF
:100590000C460546012A05D02878800600D5EA6970
:1005A000002302E0012305E05B1C934202D2E05CE1
:1005B0000028F9D1A869E618C01AA861286A184469
:1005C00028622846FFF7AAFF04E0D5E9012114F8C4
:1005D000010B9047B442F8D32846FFF7B5FF70BD32
:1005E0002DE9F0410646002410687529314616A50C
:1005F00010D0FFF7BAFF002802DA404213A507E047
:1006000031688A0701D512A502E0490704D511A572
:10061000012401E0FFF7B2FF00210A2206F12407BE
:1006200009E0B0FBF2FCB0FBF2F302FB1C0030303F
:1006300078541846491C0028F3D123462A463046F0
:10064000BDE8F04100F0FFBA000000002D000000FE
:100650002B000000200000002DE9FF5F15468A46B0
:100660000446DFF8AC80F8440027D8E900103E4685
:10067000CDE9001010E03AF816106A4602A800F022
:10068000A1FF411C07D02178890603D5E2693918FA
:1006900091420DD80744761C2078800602D5E06987
:1006A000B84205DDAE42E6DB3AF816000028E2D19A
:1006B000A069C01BA0612046FFF730FFD8E90010F9
:1006C000CDE90010002017E03AF818106A4602A899
:1006D00000F078FFB0F1FF3F81460BD000250DF10F
:1006E000080B05E0D4E901211BF8050090476D1CBB
:1006F0004D45F7D308F10100B0428046E4DB206AA3
:10070000384420622046FFF71FFFBDE8FF9F00002E
:10071000AA1B040070B5044621461068FFF72EFF9F
:10072000002104F1240505E000F007023032C00882
:100730006A54491C0028F7D12068002308A2050745
:1007400008D500F02000084304D0E069012305A289
:10075000401EE0612046BDE8704000F074BA000021
:10076000000000003000000070B504460D46214630
:100770001068FFF703FF2188090502D50F4A7A4464
:1007800002E00E4A7A440E32002104F1240305E00F
:1007900000F00F060009965D5E54491C0028F7D151
:1007A00020780023000704D5702D02D009B1022360
:1007B00011322046BDE8704000F045BA9A1A040094
:1007C0002DE9F05F894604464FF0000ADFF874B166
:1007D000FB44C0F820A02046E1688847002874D078
:1007E000252806D0D4E901219047206A401C2062C8
:1007F000F1E700265F462046E16888472028054645
:1008000007DB312D05D2781910F8200C08B106430A
:10081000F1E7B00701D526F00406C4F81CA00027B4
:10082000C4F818A02A2D09D0284641F0A6FA38B3FA
:1008300004EB8708303DC8F8185019E059F8041B3C
:10084000204604EB87029161E1688847012F054645
:1008500018D1E069002820DA26F020061DE0D8F83B
:10086000180000EB800005EB40003038C8F8180095
:100870002046E1688847054641F07FFA0028EED11E
:10088000012F0AD02E2D08D12046E16888477F1C11
:100890000546022F46F02006C4DBA069002803DAD3
:1008A000404246F00106A061F00701D026F0100694
:1008B0006C2D0BD0682D09D04C2D39D06A2D35D038
:1008C000742D35D07A2D33D016E038E0E1682F460C
:1008D00020468847B842054609D16C2F26D04FF4F0
:1008E0008060E168064320468847054604E06C2F97
:1008F0001AD04FF4807006430DB3A5F141001928BA
:1009000002D8203546F400664A462946204626602D
:100910004E46FFF729FD80B101280BD0F61D26F0C9
:10092000070000F1080956E74020E4E78020D8E7F7
:100930000020D6E706F104094DE7284652E7206A71
:10094000BDE8F09F701A040070B5064600F01EF96D
:100950000468054630460A22002100F0FBFD2C60A9
:1009600070BD70B5064600F011F9046805463046C2
:100970000A22002100F0EEFD2C6070BD401ECAB2BC
:1009800010F8011F8A4202D00029F9D100207047D7
:1009900030B505460B462A4613F8014B12F8010BF9
:1009A00008B1A042F8D01CB1002802D06D1CF1E7BC
:1009B000284630BD40EA010310B59B070FD1042A39
:1009C0000DD310C808C9121F9C42F8D020BA19BA1A
:1009D000884201D9012010BD4FF0FF3010BD1AB17F
:1009E000D30703D0521C07E0002010BD10F8013BD4
:1009F00011F8014B1B1B07D110F8013B11F8014BFB
:100A00001B1B01D1921EF1D1184610BD40EA010313
:100A1000024630B59B0710D14FF0013400E008C208
:100A200008C91D1B9D4315EAC41FF8D013F0FF0130
:100A300002F8011B0DD01B0AF8E711F8013B002B4F
:100A400002F8013B05D011F8013B002B02F8013BF5
:100A5000F3D130BD10B5431C02E010F8011B71B199
:100A60008107FAD14FF0013202C88C1A8C4314EA84
:100A7000C211F9D0C01A0A0603D0C01E10BDC01A98
:100A800010BD0A0401D0801E10BD0902FCD0401E1A
:100A900010BD421E12F8013F002BFBD111F8013BA3
:100AA000002B02F8013BF9D1704710B5044610F055
:100AB000030F08BF11F0030F40F015804FF0013E07
:100AC000121FC0F20E8051F8043BA3EB0E0C2CEA6F
:100AD000030C1CEACE1C08BF40F8043BF0D0A1F187
:100AE000040102F10402521E08DB11F8013B00F878
:100AF000013B002BF7D1114600F0BAFD204610BD96
:100B000030B44FF0013C50F8042BCCFA52F451F8B9
:100B1000043BD51A20D1FCB950F8042BCCFA52F47E
:100B200051F8043BD51A17D1B4B950F8042BCCFABC
:100B300052F451F8043BD51A0ED16CB950F8042B7D
:100B4000CCFA52F451F8043BD51A05D1002CDAD076
:100B500030BC4FF00000704729BAB1FA81F111F0B2
:100B60001801D1F120008440F2D1CA40CB4012F0EC
:100B7000FF0213F0FF0330BCD01A70477047704774
:100B80007047000000487047A04B002000487047A5
:100B9000984B0020704770477047704738B504463F
:100BA0000A4600206946AFF30080002808BF38BD20
:100BB00002460099204600F08DFD012038BD01203D
:100BC00000F012BFF8B5AFF30080054600200C46D8
:100BD000102000BF0646A819A0420DD9324669462A
:100BE0000020AFF30080070008BF00F0FDFE009872
:100BF000A04218BF0546C419FFF7C4FF05600746A9
:100C0000F01D20F007004619284600F00AF8B4420B
:100C100008BFF8BDA21B31463868BDE8F84000F0B7
:100C200059BD00210160C0E90110704710207047D4
:100C300010B5FFF7ABFF006810BD10B50446FFF715
:100C4000A5FF046010BD2DE9F0470D469946924678
:100C5000044600F124080168880604D5E06921F003
:100C60001001216000E00120A84201DD471B00E0E7
:100C70000027A1697A1902EB0900081AA0612078FF
:100C8000C00602D42046FFF749FC002608E0D4E95C
:100C900001211AF806009047206A401C761C206249
:100CA0004E45F4DB2078C0060AD52046FFF736FC17
:100CB00006E0D4E9012130209047206A401C2062E0
:100CC000381EA7F10107F4DC07E0D4E9012118F888
:100CD00005009047206A401C2062281EA5F10105EE
:100CE000F3DC2046FFF730FC2078000602D5022016
:100CF000BDE8F0870120FBE72DE9FF4F0C461E46BB
:100D00004FF0FF378BB0D2E90001DDF860800A9028
:100D10008A46C1F30A5505B93D46002108464FF001
:100D20000000BAF1000F00F4400005DA00EB80008B
:100D30004FF4400101EA50004FEA9059B9F1010F18
:100D400000DDB9460A9850EA4A000ED044F6105029
:100D5000A5F2FF3545432F14B8F1000F1ED07542A0
:100D6000291E1EDDC9F100021CE0B8F1010F4FF091
:100D7000000001D0302103E0F24305E02154401C83
:100D8000B042FBDB30460022002121540B99C1F810
:100D90000880C1E900200FB0BDE8F08FBD1B6D1CBD
:100DA000DEE74A4600DA694206A800F0ABFD06AB72
:100DB00093E8070003AB83E8070050460A993FF029
:100DC0007DFD8DE80700A0F500501F3800900398C6
:100DD000002D0ADD42F21F014A460844002303A900
:100DE0000390684640F028F809E0A0F500504A4614
:100DF0001F38002303A90390684640F047F88DE8A8
:100E000007000004000C03D04FF0FF30410800E061
:100E10001046B8F1000F03D00022009215461EE0E4
:100E2000751E05D400F070FC303262556D1EF9D588
:100E3000B3460122084302D000227F1C04E0207840
:100E4000302801D100227F1E002A099784D01DE09E
:100E5000112D07DA00F058FC303262556D1C50EA53
:100E60000102F5D1084302D00098C8B10EE000217C
:100E7000681E05E0235C625C63542254401E491CDA
:100E80008142F7DBAB46A81B401E0990002004F806
:100E90000B000B98099AC0F80880C0E9002B7AE78C
:100EA00011264FF0000857E72DE9F04F8846044619
:100EB000D21D22F0070191B0D1E90001CDE90A016C
:100EC00040F062F902460B98C00F01D02D2007E0D8
:100ED0002068810701D52B2002E0202101EAC00013
:100EE000032A099001D0072A05DB03464146204624
:100EF00000F058FC0BE12078800601D5E06900E0A5
:100F00000620B8F1650F814606D0B8F1660F18D0FB
:100F1000B8F1670F70D131E00020B9F1110F0090E6
:100F200001DB112301E009F101030AAA01A90CA8C0
:100F3000FFF7E2FEDDE90C70002609F101058346AA
:100F400047E001204B4600904FF000470AAA01A954
:100F50000CA8FFF7D1FEDDE90DB00C995D46002627
:100F600010B909F101000D18B9EB050003D4C0F167
:100F7000FF3609F10105A5EB09002BE0B9F1010FDE
:100F800001DA4FF001090020B9F1110F0090484635
:100F900001DD112300E003460AAA01A90CA8FFF70E
:100FA000ABFEDDE90C704D46002683462078000735
:100FB0000AD4AB4500DA5D4601A8012D04DD4119D4
:100FC00011F8011C302907D04F4502DA17F1040F40
:100FD00004DA012082460FE06D1EEEE7002F02DCEE
:100FE000ED1B3E4403E0781CA84200DD7D1CB81BCD
:100FF00000F1010A4FF000472078000703D4AA450A
:1010000001DB4FF0FF3A0021B7F1004F0DF143082B
:101010008DF8431024D002202B23002F01DA7F42C9
:101020002D230A21021EA0F1010000DC5FB197FB15
:10103000F1FC97FBF1F201FB1C7C17460CF1300C24
:1010400008F801CDEEE7A8F1010003702188090539
:1010500001D5452100E06521A0F1010800F8011C3F
:1010600009980FA9A1EB0807FF1D00B10120411944
:1010700001EBEA70A1693844081A401EA06120788B
:10108000C00602D42046FFF749FA099828B1D4E9EE
:1010900001219047206A401C20622078C00622D59A
:1010A0002046FFF73BFA1EE0002E04DBB34502DDCD
:1010B00001A8805D00E03020D4E901219047206A3A
:1010C000401C2062761CAAF101005FEA000A0AD1E6
:1010D00000F0FCFAC0680168405CD4E90121904747
:1010E000206A401C2062281EA5F10105DCDC07E017
:1010F000D4E9012118F8010B9047206A401C2062B6
:10110000381EA7F10107F3DC2046FFF71DFA032084
:1011100011B041E62DE9F04F04460D46D21D22F0F4
:10112000070089B0D0E900974846394640F02CF8CE
:101130000246F80F01D02D2307E02068810701D572
:101140002B2302E0202101EAC0038DF820300BB1EF
:10115000012000E00020032A824601D0072A04DB98
:101160002946204600F01EFB3FE12078800601D48E
:101170000D2500E0E569C7F30A560D2D49DA002177
:101180004FEA175B08464FF00000002F00F44000C4
:1011900007DA00EB80004FF4400100EBD07001EA69
:1011A00060008115012901DD4FF0FF3100224FEA77
:1011B000850CBCF1180F06D31346ACF118004FF0A4
:1011C0008052C24003E04FF4801323FA0CF30CF179
:1011D0000C0CBCF1200F04D3ACF1200C09FA0CF07C
:1011E00001E007FA0CF000294FF0004801DD18B9C2
:1011F0000FE00ED140450CD319EB02095F4121B934
:10120000404502D19F4329EA0209BBEB175F00D09A
:10121000761C2088000502D57B48784402E07A4895
:101220007844193808AA302302F80A30037C0AF1FE
:101230000101002E0AF1020A53546A4602DC4FF003
:10124000300101E04FF031014FF001088DF800103E
:1012500002D0A6F2FF3603E059EA470100D06B4EF8
:10126000002D02DC2178090704D54FF002082E2159
:101270008DF80110C44600210BE0C7F303433F0182
:10128000C35C491C6D1E02F80830052908F10108ED
:1012900001DA002DF1DC00210CE000EB1973491C90
:1012A0001B786D1E082902F808304FEA091908F169
:1012B000010801DA002DF0DC21688B0602D516E06A
:1012C000A8F10108E04505DD02EB080313F8013C35
:1012D000302BF5D0B8F1000F09DD02EB080313F84D
:1012E000013C2E2B03D1090701D4A8F10108002DE0
:1012F00005DD3E2102F808106D1E08F10108407C52
:10130000002E02F8080008F1010804DA2D207642C8
:1013100002F8080002E02B2002F808000A214FF42E
:101320007A70864208F101080BDB96FBF0F330334C
:1013300002F8083096FBF0F308F1010800FB136691
:1013400001E0642E0CDB642096FBF0F3303302F8EE
:10135000083096FBF0F308F1010800FB136601E08A
:101360000A2E06DB96FBF1F0303002F8080008F197
:10137000010896FBF1F001FB1060303002F8080024
:10138000A16908F1010808EB050202EB0A00081A3E
:10139000A0612078C00602D42046FFF7BFF8216A7A
:1013A00008AE01EB0A00206204E0D4E9012116F83E
:1013B000010B9047BAF1010AF7D22078C00602D596
:1013C0002046FFF7ABF86E4609E016F8010B3E2801
:1013D0000FD0D4E901219047206A401C2062B8F167
:1013E0000108F2D22046FFF7AFF809B00320BDE8AC
:1013F000F08F206A2844206203E0D4E901213020E4
:1014000090476D1EEBD3F8E74A10040002FCFFFF83
:1014100001694A1C02610878704700B58FB0CDE9B8
:1014200001310021059105497944CDE903101146A8
:101430006846FFF7C5F90FB000BD0000E5FFFFFFEC
:101440000A6802F8010B0A60704710B5436913B1CE
:10145000AFF3008001E0FFF79AF8012010BD127889
:1014600000F124010A7000224A700122EDE71168A0
:101470004FF0FF32E9E710B5436913B1AFF30080D5
:1014800001E0FFF7E9F8012010BD128800F1240106
:1014900082840022C2840122EDE711684FF0FF32FE
:1014A000E9E700000FB40B0010B54FF000048AB05C
:1014B0000FA900910E99CC60234C7C44234A7A44B6
:1014C000CDE9064200D004236FF00042CDE901329D
:1014D0001F4A7A446B4608920246002040F07BFE89
:1014E0000AB010BC5DF814FBF0B507464FF0FF30B2
:1014F0001E4615460C463B4685B06A460091CDE92E
:10150000010131460020049004A8FFF7CBFF0499A5
:101510000346601825B109B1024600E022462A6060
:1015200000290ED0002B02DD0099814209D03B46F4
:101530006A463146001B0094CDE9010404A8FFF778
:10154000B1FF05B0F0BD000067030000810300009B
:10155000BD0200002DE9F04791460F468046044643
:10156000002614F8015B2DB100F0A8F80068405D7A
:10157000C007F6D12B2D02D02D2D18D0641E4A465F
:101580003946204600F06EF927B13968A14201D1F1
:10159000C7F800804FF0020471050BD540420028C7
:1015A00003DDFFF7F3FA0460A007BDE8F08746F417
:1015B0008066E4E70028F8DAFFF7E8FA04606FF0E5
:1015C0000040F2E72DE9F04116460C46054600F0D2
:1015D00075F8036893F80101012807D0FF2C12D891
:1015E000185D80B101202C70BDE8F081D3F80701AF
:1015F0003246214603F20713C7182846BC46BDE809
:10160000F041002360474FF0FF30EDE710B5203A7E
:10161000C0F00B80B1E81850A0E81850B1E818509D
:10162000A0E81850203ABFF4F5AF5FEA027C24BF6F
:10163000B1E81850A0E8185044BF18C918C0BDE858
:1016400010405FEA827C24BF51F8043B40F8043B21
:1016500008BF7047D20728BF31F8023B48BF11F8D6
:10166000012B28BF20F8023B48BF00F8012B704730
:101670004FF000020429C0F0128010F0030C00F0BB
:10168000BC81CCF1040CBCF1020F18BF00F8012B97
:10169000A8BF20F8022BA1EB0C0100F0AEB95FEA65
:1016A000C17C24BF00F8012B00F8012B48BF00F8D3
:1016B000012B704700487047984B002010B500F090
:1016C00005F8001D10BD00BFE10704000048704789
:1016D000B84B0020034640688C46002818BF88425B
:1016E0003CBF03464068F8D318681844884207D0C6
:1016F0000CF1030020F00700001D411A521A0146A8
:10170000081D0A60FEF7CFBE30B5B0F10A0271F1D4
:1017100000034FEA900E4EEA817EB0EB0E0061EBC3
:1017200091014FEA101E4EEA017E10EB0E0041EBD4
:1017300011114FEA102E4EEA016E10EB0E0041EB34
:1017400011214FEA104E4EEA014E10EB0E0041EB14
:101750001141401841F100014FEAD00040EA4170C8
:101760004FEAD1014FEA810444EA907410EB8005FE
:1017700044EB01046D1944EB0404521BA3414FF0E8
:10178000000348BF0A3200D530BD401C41F10001C2
:1017900030BD10B50446FFF791FF0068005D00F012
:1017A000010010BD2DE9F0411F46044603260168E3
:1017B000072A01F4006004DB08B116A505E016A5B0
:1017C00003E008B115A500E015A521F01000206088
:1017D000A069C01EA0610FB1401EA0612046FEF7A7
:1017E0009DFE4FB1D4E9012138469047206A401C44
:1017F0002062C01C206206E0206AFAE7D4E90121D9
:1018000015F8010B9047761EF8D22046FEF79CFE95
:10181000BDE8F0814E414E006E616E00494E4600BB
:10182000696E6600426842B1016811F8013B23B15C
:10183000521EC0E90012184670470121C160881E7F
:10184000704742685AB1C368016843B983688B42E4
:1018500005D0491E521CC0E90012002070474FF00D
:10186000FF3070472DE9F05F824615468B46002712
:101870000AF10104B9460078302801D09DB113E087
:1018800014F8010B0127782803D0582801D045B15E
:101890000AE00DB1102D07D1002714F8010B102517
:1018A00002E0082500E00A250026B0460EE005FB10
:1018B000080005FB06F101271FFA80F801EB10462E
:1018C000B6F5803F00D3B94614F8010B294600F065
:1018D000DFF80028EBDABBF1000F05D00FB1641E72
:1018E00000E05446CBF80040B9F1000F06D0FFF7F6
:1018F0004DF902210160C81EBDE8F09F48EA06408C
:10190000FAE700002DE9F047814616468AB03548CF
:1019100078440DC88DE80D0032487844801C03AC33
:101920000DC884E80D0041F69B300844372190FB38
:10193000F1F290FBF1F5A5F1800501FB12041B3CCF
:1019400002D56442012000E00020DFF898A0804624
:101950000027FA44AAF1BE0A0EE0E0070AD0324698
:10196000684607EB470101230AEB81013FF08EFA3D
:101970008DE8070064107F1C002CEED1194F7F44C6
:10198000AE3F19E0E80715D007EB04100DF1180A77
:1019900090E80E008AE80E00C068F04201D1981964
:1019A00008903246012306A903A83FF06FFA03AB63
:1019B00083E807006D10641C002DE3D14FF0010394
:1019C00032466946B8F1000F03A802D03FF034FA5E
:1019D00001E03FF05BFAC9E90001C9F808200AB04C
:1019E000BDE8F087040A040010B500F0E9FABDE88C
:1019F000104000F0E0BA4FF0000200B513469446E4
:101A00009646203922BFA0E80C50A0E80C50B1F156
:101A10002001BFF4F7AF090728BFA0E80C5048BF6A
:101A20000CC05DF804EB890028BF40F8042B08BF08
:101A3000704748BF20F8022B11F0804F18BF00F804
:101A4000012B704770477546FFF734FEAE46050020
:101A50006946534620F00700854618B020B5FEF7CA
:101A6000E1FCBDE820404FF000064FF000074FF0CA
:101A700000084FF0000BAC46ACE8C009ACE8C00968
:101A8000ACE8C009ACE8C00921F007018D467047F9
:101A90003A2800D2303820F02002412A01D3A2F1A6
:101AA0003700884201D34FF0FF3070472DE9FF4FD8
:101AB00006468BB00878FF2806D0491C2D2805D093
:101AC00000244FF0000908E000200CE00124F8E7B2
:101AD00009EB8903491C00EB43090878FF28F7D17B
:101AE00014B1C9F100008146107800252C46AA46A1
:101AF00029462D2801D02B2804D1521C2D2813D083
:101B0000002082468B461078FF280FD04FF0000C43
:101B10000A21521CA5FB017804FB018105FB0C1175
:101B2000C5194BEB0104EEE70120EAE70021084666
:101B30004FF00000BAF1000F02D000EB8000400827
:101B4000C0F38157012F01DD4FF0FF370E9955EAA1
:101B5000040009EB01080BD04FF0020918F5FA7FD9
:101B600016DA4FEACA70002F706008DD012007E026
:101B70004FEACA70C6E900B00FB0BDE8F08F002090
:101B80003060FFF703F8C0F800901821084616E00F
:101B9000B8F5FA7F18DD002F02DAF748784401E043
:101BA000F6487844D0E90010C6E9001040EACA704F
:101BB0007060FEF7EBFFC0F80090142108460FB0EC
:101BC000BDE8F04F40F05CBA002108464FF000003D
:101BD000B8F10001099002DAC7F1000200E03A46CC
:101BE00001DAC8F1000106A8FFF78CFE06AB93E806
:101BF000070003AB83E8070044F23E005BEA040100
:101C00000090584604D144F21E012C465D460091D6
:101C1000210C0904014306D10099240444EA154427
:101C20002D041039009104F07F41014306D1009941
:101C3000240244EA15642D020839009104F0704131
:101C4000014306D10099240144EA15742D01091FAE
:101C5000009104F04041014306D10099A40044EAF8
:101C60009574AD00891E009104F00041084304D131
:101C700000986D196441401E00904FF001033A46F0
:101C80006846B8F1000FCDE9014503A902DD3FF038
:101C900012F901E03FF0E5F8BAF1000F04460D46F5
:101CA00001D084F00044002108464FF0000009995B
:101CB00040F2FF77484010F00C0F07D124F00040AD
:101CC000284303D0C4F30A50B84212D1FEF75EFF96
:101CD000C0F80090C4F30A50B8420AD1A84878442A
:101CE000D0E90010C6E9001004F00041084370601C
:101CF00042E7C6E900543FE72DE9FF4F1F464FF08A
:101D0000000A4FF0FF38454691B0D7E90146CDF8BB
:101D10003CA0FFF7DBFCC0680168405C1090B9692B
:101D200012986D1C8847396A814688470028F6D189
:101D3000B9F1FF3F0AD0002E24F4D06411DDB9F1CF
:101D40002B0F08D0B9F12D0F0BD102E0404615B092
:101D500013E744F48064B96912986D1C8847761EB5
:101D60008146600504A901D52D2000E02B20002E1E
:101D700001F1010B0DF130088DF810003FDDB9F1D4
:101D8000690F08D0B9F1490F05D0B9F16E0F02D033
:101D9000B9F14E0F1CD13B4601A8009580E85002D6
:101DA000DDE912126FF0020040F019FAC11CCED129
:101DB0000EE0B96912986D1C884781461398761E0B
:101DC00044F4007405600F98401C002E0F9016DD3F
:101DD000B9F1300FEDD0B9F1780F02D0B9F1580F49
:101DE0000DD10F9801280AD13B46CDE90054DDE919
:101DF0001212001F029640F0F0F9C11CA7D11099F1
:101E000089453ED144F0800406E01399681CAAF18C
:101E1000010A44F400740860B9696D1C1298761EBA
:101E2000884730288146F0D02BE01099894505D1AC
:101E3000200603D4761E44F0800418E048463FF0A4
:101E40009CFF08B3761E0DF123029345A9F13000E3
:101E500044F4007406D20BF8010B200607D5AAF152
:101E6000010003E0200602D40AF101008246A00529
:101E700002D51399681C0860B96912986D1C8847CF
:101E80008146002ED1DC53E0002E51DDB9F1650F03
:101E900002D0B9F1450F4BD1A00549D5B9696D1CE8
:101EA0001298761E24F440748847002E81460CDD7B
:101EB0002B2804D0B9F12D0F07D144F48074B969EF
:101EC00012986D1C8847761E8146E00501D52D21AC
:101ED00000E02B2108F8011BCDF8008021E0761EE0
:101EE0000DF13901884544F400740CD2A9F1300099
:101EF00010F0FF0088F8000002D10099884509D948
:101F000008F1010806E0E00501D51E4801E042F2B3
:101F10000F708246B96912986D1C884781461398E4
:101F20000560002E04DD48463FF027FF0028D6D18B
:101F3000F96912988847FF2053468BF8000088F80B
:101F4000000000200A900B9004AA0CA90AA8FFF731
:101F5000ADFDA00502D46FF00100F8E614F0240FE7
:101F600012D0E0071CD13868DDE90A12031D3B607E
:101F70000068C0E9001213E09CAB05008EAB0500C1
:101F800052AA0500F1D8FFFF0AA968463FF0EEFD0E
:101F9000E00705D13868009A011D396000680260C9
:101FA0002846D4E610B50446AFF300802046BDE8CD
:101FB0001040FEF722BA002801D000F029B870477F
:101FC00010B5012805D0002103A000F03AF8012047
:101FD00010BD09A1F8E7000053494752544D454D43
:101FE0003A204F7574206F662068656170206D65BA
:101FF0006D6F7279000000003A2048656170206DB5
:10200000656D6F727920636F7272757074656400AC
:1020100001491820ABBEFEE726000200B2F1200302
:102020000AD5C2F1200301FA02F120FA03F341EAD2
:10203000030100FA02F0704700FA03F14FF00000CC
:10204000704770B505460C460A2000E06D1C00F094
:1020500011F835B128780028F8D102E0641C00F0AE
:1020600009F814B120780028F8D1BDE870400A20A2
:10207000AFF3008008B569468DF800000320ABBEC1
:1020800008BD00002DE9FF4F1F464FF03C0987B007
:102090004FF00042DDE9141001F10108DDF858A00D
:1020A00002EA40500390002005908346054604460E
:1020B0000490B969461E08988847AAF1010A02905F
:1020C000BAF1000F3BDD02982E2815D01021FFF742
:1020D000DFFC00282EDB4FF0010B0599014317D0E0
:1020E000B9F1000F0BDB4A46C117FFF797FF054315
:1020F0000C43A9F1040905E0012004900BE008B1AC
:1021000045F0010501200590049820B9361D02E034
:10211000049800B1361FB969089808F1010888478A
:10212000BBF1000FAAF1010A0290C9D00999C1F8C8
:102130000080C5E70298702808D0502806D0F969B9
:1021400008988847BBF1000F14D04FE000200290A0
:102150000120BBF1000F049009D0B969089808F17B
:1021600001088847AAF10109B9F1000F07DCF969F4
:10217000089888476FF001000BB0BDE8F08F2B285E
:1021800004D02D280CD14FF0FF300490B969089885
:1021900008F101088847A9F10109B9F1000FE6DD4E
:1021A000411CE4D00A21FFF773FC0028DFDB029911
:1021B00008F1010801EB810100EB41000290B969CF
:1021C000089888470A21FFF763FC099AA9F10109D9
:1021D000B9F1000FC2F8008001DD0028E7DAF969E3
:1021E000089888470499029800FB016655EA0400A4
:1021F00004D004F04041090002D006E0039898E0C2
:10220000A40044EA9574AD00B61E04F00041080035
:1022100002D16D196441761E159810F0240F03D079
:102220004FF00B095C4803E04FF028096FF07D0088
:102230008246564507DAAAEB06018944B9F1410FF7
:1022400001DD4FF0410901200021A9F10102FFF752
:10225000E5FE024628400B462140084301D00121FB
:1022600000E00021501E029143F1FF31284021403F
:10227000084301D0012000E000200299834651EA82
:102280000B014FD0002108464FF00000039900F4E5
:10229000400039B100EB80004FF4400100EBD070FA
:1022A00001EA60008015012802DD4FF0FF3000E0F8
:1022B00013D0401C36D0029860B3BBF1000F0CD194
:1022C0004A4601200021FFF7A9FE2840214008438B
:1022D00001D0012000E00020E0B101204A460021A9
:1022E000FFF79CFE034640190A4661412D1A8C41B6
:1022F00011D3B9F1400F09DD159810F0240F02D069
:10230000AAF1340603E0AAF1170600E0761C0025C6
:102310004FF0004406E05B1E42F1FF3220EA030565
:1023200021EA0204CAF10100B04206DA1B4903980F
:1023300008430190002000900EE0039AC4F3D321DB
:10234000E80A0A43164940EA44500A433146CDE9B7
:10235000000268463FF0BEFC159810F0240F0BD029
:102360001598C00715D13868DDE90012031D3B60E0
:102370000068C0E900120CE002A869463FF0F6FBD5
:102380001598C00705D13868029A011D39600068A8
:1023900002604046F0E6000002FCFFFF0000F07F14
:1023A0000000F03F2DE9FF4F92461D4685B04FF0EB
:1023B0000041DDE9124BDDE914727F1E01EA4B504A
:1023C000414940F0FF4940EA0108002122F0200085
:1023D0004928049102D04E2828D04CE03BA0012689
:1023E00007C88DE80700A9690698641C88477F1E06
:1023F000014606D41DF8060018B121F020018142E3
:102400000BD0E96906988847032E34D0082E32D0C5
:102410006FF0010009B0BDE8F08F761C032E01D0EB
:10242000082EE0D1601CCAF80000DCE7A969069814
:10243000641C88477F1E2AD420F02000412826D122
:10244000A9690698641C88477F1E20D420F02000CC
:102450004E281CD1A9690698641C88477F1E48F441
:10246000002849F48009CAF8004001D4282806D081
:10247000E969069888475FEACB7012D022E0A96923
:102480000698641C88477F1E01D4002803DAE96996
:1024900006988847BCE72928F1D1641CCAF8004097
:1024A000E9E71BF0240F07D028680499031D2B606F
:1024B0000068C0E9001805E02868021D2A6000686D
:1024C000C0F800902046A5E70000F07F494E46493D
:1024D0004E4954590000000053EA020C00F0698094
:1024E0002DE9F04B4FF00006002B1FBFB3FA83F528
:1024F00003FA05F424FA05F65E4012BF1643B2FA59
:1025000082F502FA05F4C5F120051EBF22FA05FC8A
:1025100044EA0C04203556EA044C4FEA144418BF30
:10252000641C4FF000084FF00009904271EB030C5F
:1025300039D3002919BFB1FA81F701FA07F6B0FAC9
:1025400080F700FA07F6C7F120071EBF20FA07FC44
:1025500046EA0C062037B6FBF4FCA7EB0507103F54
:1025600007F01F0BCBF120062CFA06F60CFA0BFB3A
:1025700044BFB3460026202FA4BF5E464FF0000B99
:102580005BEA060C08BF4FF0010B19EB0B0948EB97
:102590000608ABFB027C06FB02CC0BFB03CCC01B8A
:1025A00071EB0C01C1E70B46024641464846BDE8C7
:1025B000F08B13B5084318BF4FF0FF300146AFF35F
:1025C0000080BDE81C407047032A40F2308010F0C4
:1025D000030C00F0158011F8013BBCF1020F6244BE
:1025E00098BF11F801CB00F8013B38BF11F8013B4F
:1025F000A2F1040298BF00F801CB38BF00F8013BFC
:1026000011F003033FF402A8083AC0F0088051F823
:10261000043B083A51F804CBA0E80810F5E7121D76
:102620005CBF51F8043B40F8043BAFF30080D20795
:1026300024BF11F8013B11F801CB48BF11F8012B61
:1026400024BF00F8013B00F801CB48BF00F8012B84
:10265000704702F0FF0343EA032242EA0242FFF717
:1026600009B80000000000000020704700000000D2
:102670002DE9F04F81B049F2B82441F25C71C2F209
:102680000104C2F201410025D4F81003C1610562C2
:10269000204621F081FED4F8100300285BD047F2D9
:1026A00050270090C2F2010742F25C0B47F2522918
:1026B0000FF2B80A3888C2F2014BC2F201090026B3
:1026C00003E000BF01361E2E23D082B20130B9F8DC
:1026D00000301AF8061084B20BF802109C423880C1
:1026E00010D14FF0000800BF01F066F8B5EB582F8D
:1026F00003D1012808F10108F6D001F05DF80128A6
:1027000007D0388881B2B1F5805FDBD300203880F4
:10271000D8E700984FF490730027D0E9071249F2E8
:10272000B8200A44C2F20100D0F8200300F5147169
:10273000C0F864320369C0F85C22012BC0F86872EB
:102740004FF00307A0F8507208BFC0F8602200687D
:10275000DAB223F00DFB45F265010020C2F201015F
:1027600001220A7001B0BDE8F08F00BF5B4F4B5DE6
:1027700020537461727420526563656976652055D3
:10278000534220417564696F0D0A0000000000008B
:1027900047F2C440C2F200000178012919D100219A
:1027A000017041F2040047F2BC42CEF20000C2F2D6
:1027B000000247F2B443C2F2000301681268891AAA
:1027C0001A681144196047F2C0410068C2F2000162
:1027D00008604EF2FF0547F2084640F61847C0F27F
:1027E000F5550FF22C08C2F20006C5F602074FF0AD
:1027F000805400E03C60002140460EF039F800BFF4
:102800003068A842F6D20130306000BFF8E700BF60
:10281000427573204661756C740000000000000072
:1028200000207047000000000020704700000000FA
:1028300049F2B82047F28842C2F20100C2F2000217
:10284000D0F80C130020086247F26840C2F2000082
:10285000486100208A6170472DE9F04F91B00DF179
:10286000040A0C46064640215046FFF7C4F8226889
:1028700050463146FEF719F9206801383F2803D940
:10288000002011B0BDE8F08F46F2103546F2D02698
:1028900046F2F4384FF00009C2F20105C2F2010617
:1028A000C2F2010800204FF0000B20E047F2A840E0
:1028B000C7F14001C2F200003F2F80F8009008EB02
:1028C000070088BF0021FEF7D3FE404631463A4656
:1028D000FEF79CFE4021304685F80090FFF78BF80C
:1028E0000BF1010B21681FFA8BF08142C8D91AF84D
:1028F00000000028F4D02F783B28F055D6D0781C63
:102900002870C1B24029E5D2EAE7000000000000CB
:10291000F0B581B046F21830C2F20100007800280C
:1029200000F0FA8546F218340FF6E041C2F20104D5
:1029300003222046FEF73EF8002800F0B38246F25C
:1029400018300FF6CC41C2F201000522FEF732F832
:10295000002800F0B78246F218350FF6BC41C2F2EB
:10296000010505222846FEF725F8002800F0BA8266
:1029700042F62D612868C0F22E01884200F0C28222
:1029800028882E2800F0CE8246F218350FF69041A6
:10299000C2F2010505222846FEF70CF8002800F0D7
:1029A000D18242F62D512868C0F22E01884200F0F3
:1029B000D98246F218300FF67041C2F201000522AA
:1029C000FDF7F8FF002800F0DD8246F218300FF620
:1029D0006041C2F201000322FDF7ECFF002800F085
:1029E000E18246F218350FF64C41C2F2010505228C
:1029F0002846FDF7DFFF002800F0E48242F62D6153
:102A00002868C0F22D01884200F0EC8246F21830AE
:102A10000FF62841C2F201000522FDF7CBFF002886
:102A200000F0F08246F218300FF61841C2F20100B1
:102A30000322FDF7BFFF002800F0F48246F21835AC
:102A40000FF60441C2F2010503222846FDF7B2FF4A
:102A5000002800F0F78242F62D512868C0F22D01BF
:102A6000884200F0FF8246F218300FF6E031C2F2E1
:102A700001000522FDF79EFF002800F0038346F2C7
:102A800018350FF6D031C2F2010505222846FDF7B0
:102A900091FF002800F0068342F62E512868C0F20C
:102AA0002E01884200F00E8342F62E612868C0F2A3
:102AB0002E01884200F0168328882D2800F02283FA
:102AC00042F62E612868C0F22D01884200F02A8368
:102AD00046F218350FF68431C2F201050522284668
:102AE000FDF768FF002800F02D8342F62E5128687C
:102AF000C0F22D01884200F0358346F218300FF6FF
:102B00006431C2F201000522FDF754FF002800F0F5
:102B1000398346F218300FF65431C2F20100052213
:102B2000FDF748FF002800F03D8346F218300FF60D
:102B30004431C2F201000522FDF73CFF002800F0FD
:102B4000418346F218300FF63431C2F201000622FA
:102B5000FDF730FF002800F0458346F218300FF6ED
:102B60002431C2F201000622FDF724FF002800F004
:102B70004B8346F218300FF61431C2F201000622E0
:102B8000FDF718FF002800F04F8346F218300FF6CB
:102B90000431C2F201000622FDF70CFF002800F00C
:102BA000538346F218300FF6F421C2F201000622D8
:102BB000FDF700FF002800F0578346F218300FF6AB
:102BC000E421C2F201000622FDF7F4FE002800F025
:102BD0005B8346F218300FF6D421C2F201000622C0
:102BE000FDF7E8FE002800F05F8346F218300FF68C
:102BF000C421C2F201000622FDF7DCFE002800F02D
:102C0000638346F218300FF6B421C2F201000622A7
:102C1000FDF7D0FE002800F0678346F218300FF66B
:102C2000A421C2F201000622FDF7C4FE002800F034
:102C30006B8346F218300FF69421C2F2010007228E
:102C4000FDF7B8FE002800F06F8346F218300FF64B
:102C50008421C2F201000722FDF7ACFE002800F03B
:102C6000738346F218300FF67421C2F20100072276
:102C7000FDF7A0FE002800F0778346F218300FF62B
:102C80006421C2F201000722FDF794FE002800F043
:102C90007B8346F218300FF65421C2F2010007225E
:102CA000FDF788FE002800F07F8346F218300FF60B
:102CB0004421C2F201000722FDF77CFE002800F04B
:102CC000838346F218300FF63421C2F20100072246
:102CD000FDF770FE002800F0878346F218300FF6EB
:102CE0002421C2F201000622FDF764FE002800F054
:102CF0008B8346F218300FF61421C2F2010006222F
:102D0000FDF758FE002800F08F8346F2183047F692
:102D10006051C2F20100C0F605010722FDF74AFE2C
:102D2000002800F0918346F2183047F69051C2F225
:102D30000100C0F605010622FDF73CFE002800F068
:102D4000938346F2183047F66E51C2F20100C0F686
:102D500005010822FDF72EFE002800F0958346F2BB
:102D6000183047F66751C2F20100C0F6050107228C
:102D7000FDF720FE002800F0978346F2183047F652
:102D80007B51C2F20100C0F605010622FDF712FEDA
:102D9000002800F0998346F2183047F68151C2F2BC
:102DA0000100C0F605010622FDF704FE002800F030
:102DB0009B8346F2183047F67651C2F20100C0F606
:102DC00005010522FDF7F6FD002800F0A78346F275
:102DD000183047F65651C2F20100C0F6050105222F
:102DE000FDF7E8FD002800F0A98346F2183047F609
:102DF0008751C2F20100C0F605010922FDF7DAFD94
:102E0000002800F08F8046F2183047F65B51C2F27E
:102E10000100C0F605010522FDF7CCFD002800F0F9
:102E2000B18346F2183047F66951C2F20100C0F68C
:102E300005010522FDF7BEFD002800F0C58346F21E
:102E4000183047F66151C2F20100C0F605010622B2
:102E5000FDF7B0FD47F2C0560546C2F20006304607
:102E6000FDF7F8FD1E2801D339F01EFA3046FDF7B4
:102E7000F1FD2A21315242F21060002DC2F2010010
:102E80004FF00101C17200F0458346F23C409FEDD6
:102E9000DD1AC2F2010090ED000A20EE010A80ED79
:102EA000000A37E347F2C055C2F200052846FDF795
:102EB000D1FD1E2801D339F0F7F92846FDF7CAFDE8
:102EC000412120E347F2C055C2F200052846FDF734
:102ED000C1FD1E2801D339F0E7F92846FDF7BAFDF8
:102EE000422110E347F2C055C2F200052846FDF723
:102EF000B1FD1E2801D339F0D7F92846FDF7AAFD08
:102F0000432100E347F2C055C2F200052846FDF711
:102F1000A1FD1E2801D339F0C7F92846FDF79AFD17
:102F20004421F0E247F2C055C2F200052846FDF701
:102F300091FD1E2801D339F0B7F92846FDF78AFD27
:102F40004521E0E247F2C055C2F200052846FDF7F0
:102F500081FD1E2801D339F0A7F92846FDF77AFD37
:102F60004621D0E247F2C055C2F200052846FDF7DF
:102F700071FD1E2801D339F097F92846FDF76AFD47
:102F80004721C0E247F2C055C2F200052846FDF7CE
:102F900061FD1E2801D339F087F92846FDF75AFD57
:102FA0004821B0E247F2C055C2F200052846FDF7BD
:102FB00051FD1E2801D339F077F92846FDF74AFD67
:102FC0004921A0E247F2C055C2F200052846FDF7AC
:102FD00041FD1E2801D339F067F92846FDF73AFD77
:102FE0004A2190E247F2C055C2F200052846FDF79B
:102FF00031FD1E2801D339F057F92846FDF72AFD87
:103000004B2180E247F2C055C2F200052846FDF789
:1030100021FD1E2801D339F047F92846FDF71AFD96
:103020004C2170E247F2C055C2F200052846FDF778
:1030300011FD1E2801D339F037F92846FDF70AFDA6
:103040004D2160E247F2C055C2F200052846FDF767
:1030500001FD1E2801D339F027F92846FDF7FAFCB7
:103060004E2150E247F2C055C2F200052846FDF756
:10307000F1FC1E2801D339F017F92846FDF7EAFCC8
:103080004F2140E247F2C055C2F200052846FDF745
:10309000E1FC1E2801D339F007F92846FDF7DAFCD8
:1030A000502130E247F2C055C2F200052846FDF734
:1030B000D1FC1E2801D339F0F7F82846FDF7CAFCE9
:1030C000512120E247F2C055C2F200052846FDF723
:1030D000C1FC1E2801D339F0E7F82846FDF7BAFCF9
:1030E000522110E247F2C055C2F200052846FDF712
:1030F000B1FC1E2801D339F0D7F82846FDF7AAFC09
:10310000532100E247F2C055C2F200052846FDF700
:10311000A1FC1E2801D339F0C7F82846FDF79AFC18
:103120005421F0E147F2C055C2F200052846FDF7F0
:1031300091FC1E2801D339F0B7F82846FDF78AFC28
:103140005521E0E147F2C055C2F200052846FDF7DF
:1031500081FC1E2801D339F0A7F82846FDF77AFC38
:103160005621D0E147F2C055C2F200052846FDF7CE
:1031700071FC1E2801D339F097F82846FDF76AFC48
:103180005721C0E147F2C055C2F200052846FDF7BD
:1031900061FC1E2801D339F087F82846FDF75AFC58
:1031A0005821B0E147F2C055C2F200052846FDF7AC
:1031B00051FC1E2801D339F077F82846FDF74AFC68
:1031C0005921A0E147F2C055C2F200052846FDF79B
:1031D00041FC1E2801D339F067F82846FDF73AFC78
:1031E0005A2190E147F2C055C2F200052846FDF78A
:1031F00031FC1E2801D339F057F82846FDF72AFC88
:10320000312180E1CDCC4C3F47F2C055C2F20005E0
:103210002846FDF71FFC1E2801D339F045F8284643
:10322000FDF718FC32216EE147F2C055C2F20005ED
:103230002846FDF70FFC1E2801D339F035F8284643
:10324000FDF708FC33215EE147F2C055C2F20005EC
:103250002846FDF7FFFB1E2801D339F025F8284644
:10326000FDF7F8FB34214EE147F2C055C2F20005EC
:103270002846FDF7EFFB1E2801D339F015F8284644
:10328000FDF7E8FB35213EE147F2C055C2F20005EB
:103290002846FDF7DFFB1E2801D339F005F8284644
:1032A000FDF7D8FB36212EE147F2C055C2F20005EA
:1032B0002846FDF7CFFB1E2801D338F0F5FF28463E
:1032C000FDF7C8FB37211EE147F2C055C2F20005E9
:1032D0002846FDF7BFFB1E2801D338F0E5FF28463E
:1032E000FDF7B8FB38210EE147F2C055C2F20005E8
:1032F0002846FDF7AFFB1E2801D338F0D5FF28463E
:10330000FDF7A8FB3921FEE047F2C055C2F20005E7
:103310002846FDF79FFB1E2801D338F0C5FF28463D
:10332000FDF798FB3021EEE047F2C055C2F20005F0
:103330002846FDF78FFB1E2801D338F0B5FF28463D
:10334000FDF788FB3F21DEE047F2C055C2F20005E1
:103350002846FDF77FFB1E2801D338F0A5FF28463D
:10336000FDF778FB2E21CEE047F2C055C2F20005F2
:103370002846FDF76FFB1E2801D338F095FF28463D
:10338000FDF768FB2C21BEE047F2C055C2F20005F4
:103390002846FDF75FFB1E2801D338F085FF28463D
:1033A000FDF758FB2121AEE047F2C055C2F20005FF
:1033B0002846FDF74FFB1E2801D338F075FF28463D
:1033C000FDF748FB40219EE047F2C055C2F20005E0
:1033D0002846FDF73FFB1E2801D338F065FF28463D
:1033E000FDF738FB3A218EE047F2C055C2F20005E6
:1033F0002846FDF72FFB1E2801D338F055FF28463D
:10340000FDF728FB2D217EE047F2C055C2F20005F2
:103410002846FDF71FFB1E2801D338F045FF28463C
:10342000FDF718FB2F216EE047F2C055C2F20005F0
:103430002846FDF70FFB1E2801D338F035FF28463C
:10344000FDF708FB28215EE047F2C055C2F20005F7
:103450002846FDF7FFFA1E2801D338F025FF28463D
:10346000FDF7F8FA29214EE047F2C055C2F20005F7
:103470002846FDF7EFFA1E2801D338F015FF28463D
:10348000FDF7E8FA5F213EE047F2C055C2F20005C1
:103490002846FDF7DFFA1E2801D338F005FF28463D
:1034A000FDF7D8FA24212EE047F2C055C2F20005FC
:1034B0002846FDF7CFFA1E2801D338F0F5FE28463E
:1034C000FDF7C8FA3E211EE047F2C055C2F20005E2
:1034D0002846FDF7BFFA1E2801D338F0E5FE28463E
:1034E000FDF7B8FA3C210EE047F2C055C2F20005E4
:1034F0002846FDF7AFFA1E2801D338F0D5FE28463E
:10350000FDF7A8FA7E21295242F21060C2F20100B2
:103510000121C1720020207001B0F0BD47F2C055FA
:10352000C2F200052846FDF795FA1E2801D338F0AF
:10353000BBFE2846FDF78EFA43210EE047F2C05548
:10354000C2F200052846FDF785FA1E2801D338F09F
:10355000ABFE2846FDF77EFA532142F2106629524F
:10356000C2F2010628460127F772FDF773FA1E28FA
:1035700001D338F099FE2846FDF76CFA482129520C
:10358000F772C7E747F2C055C2F200052846FDF7BB
:1035900061FA1E2801D338F087FE2846FDF75AFA53
:1035A00042F210665921C2F201062952284601272B
:1035B000F772FDF74FFA1E2801D338F075FE284642
:1035C000FDF748FA5521DAE747F2C055C2F2000587
:1035D0002846FDF73FFA1E2801D338F065FE28463D
:1035E000FDF738FA42F210665921C2F2010629525B
:1035F00028460127F772FDF72DFA1E2801D338F06F
:1036000053FE2846FDF726FA4121B8E72E2D00008B
:103610002D2E2E2E000000002D2E2D2E000000003D
:103620002E2E2D2E000000002E2E2E2E000000002B
:103630002E2E00002E2D2D2D000000002E2D2E2EC2
:10364000000000002D2D00002D2E00002E2D2D2E0F
:10365000000000002D2D2E2D000000002E2E2E2DFE
:10366000000000002D2E2E2D000000002D2E2D2DEF
:10367000000000002D2D2E2E000000002E2D2D2DDF
:103680002D0000002E2E2D2D2D0000002E2E2E2D73
:103690002D0000002E2E2E2E2D0000002E2E2E2E60
:1036A0002E0000002D2E2E2E2E0000002D2D2E2E51
:1036B0002E0000002D2D2D2E2E0000002D2D2D2D45
:1036C0002E0000002D2D2D2D2D0000002E2E2D2D35
:1036D0002E2E00002E2D2E2D2E2D00002D2D2E2EC7
:1036E0002D2D00002D2E2D2E2D2D00002E2D2D2EBA
:1036F0002D2E00002D2D2D2E2E2E00002D2E2E2EA7
:103700002E2D00002D2E2E2D2E0000002D2E2D2DC5
:103710002E00000000000000222809D1887844F61D
:103720000661C2F201010138B0FA80F04009087068
:1037300000207047000000000020704700000000DB
:1037400049F2B82047F22C62C2F20100C2F2000234
:10375000D0F808130020086247F22460C2F200008B
:10376000486100208A61704780B549F2B821C2F2F1
:103770000101D1F808235061E2B1D1F820231023D0
:103780004FF0000C02F50671D2F810E0C2F82402E6
:10379000C2F82C32BEF1010FC2F830C24FF0010363
:1037A000A2F8183208BFC2F8280210685FFA8EF239
:1037B00022F0DEFA002080BD2DE9F04F81B04AF200
:1037C0005405C2F200052878C8B947F2502047F2E4
:1037D000522AC2F20100C2F2010A0688BAF8004079
:1037E000A64203D1002001B0BDE8F08F49F2B8290C
:1037F000C2F20109D9F80883D8F8240018B10320CF
:1038000001B0BDE8F08F43F25C0B0120C2F2014B26
:1038100028704FF480515846FDF72AFFA64233D254
:103820000026B6EB143F6DD140F6FF7BABEB0400F6
:1038300081B23F2942F25C0128BF3F20C2F2014120
:103840000130214482B243F25C00C2F20140FEF733
:10385000BBFE04F1400CA4F6FE72032640F6FC7396
:103860002046A719033F5F4537D29119032939D064
:103870009F423AD83F2E3DD004360430A119073973
:103880009942EED3033E31E025D9E0433044361B64
:1038900081B23F2942F25C0128BF3F20C2F20141C0
:1038A0000130214482B243F25C00C2F20140B7B25F
:1038B000FEF78AFE04F140003C217A183D2A0FD021
:1038C0003E2A27D03F2A27D051B3043904347A182E
:1038D0003C2AF2D121E0002625E00130023E05E03D
:1038E00001341AE00230013E00E0033043F25C0B89
:1038F000844602E043F25C0B4026C2F2014B644670
:10390000AAF800C0A0B2B0F5805F0CD10020AAF8E0
:10391000000008E0023400E00334AAF8004002E0AE
:10392000AAF800004026D8F8240010BBC8F818B048
:10393000B0B2C8F82000D8F82410D1B90121C8F8D5
:103940002410D9F8202340F201131146C9F834009D
:10395000C2F864B021F8583F1369D066012B4FF0CC
:103960000000106708BFC2F868B01068DAB222F031
:10397000FFF900202870012001B0BDE8F08F0000A1
:1039800047F2C440C2F200000178012919D1002198
:10399000017041F2040047F2BC42CEF20000C2F2D4
:1039A000000247F2B443C2F2000301681268891AA8
:1039B0001A681144196047F2C0410068C2F2000160
:1039C000086049F60C00C2F2010004F001BF0000DB
:1039D00047F2C440C2F200000178012919D1002148
:1039E000017041F2040047F2BC42CEF20000C2F284
:1039F000000247F2B443C2F2000301681268891A58
:103A00001A681144196047F2C0410068C2F200010F
:103A1000086049F6FC00C2F2010004F0D9BE0000C3
:103A200047F2C440C2F200000178012919D10021F7
:103A3000017041F2040047F2BC42CEF20000C2F233
:103A4000000247F2B443C2F2000301681268891A07
:103A50001A681144196047F2C0410068C2F20001BF
:103A6000086049F68400C2F2010004F0B1BE000013
:103A700080B547F2C440C2F200000178012919D193
:103A80000021017041F2040047F2BC42CEF2000076
:103A9000C2F2000247F2B443C2F2000301681268A6
:103AA000891A1A681144196047F2C0410068C2F2CD
:103AB0000001086049F21C70C2F2010004F088FEA7
:103AC000BDE880403DF02EBB40F20F42D0F800C070
:103AD000C4F20202944510DC6F22C4F20202944543
:103AE00020DC3F22C4F20202944536DC1022C4F2EC
:103AF0000202944554D028224EE040F26F42C4F2B4
:103B0000020294451ADC40F23F42C4F2020294459C
:103B10002ADC40F21042C4F20202944540D040F246
:103B2000284239E09F22C4F20202944525DC70222B
:103B3000C4F20202944533D088222DE040F29F4225
:103B4000C4F2020294451FDC40F27042C4F2020249
:103B5000944525D040F288421EE04022C4F2020281
:103B600094451DD0582217E040F24042C4F20202B0
:103B7000944515D040F258420EE0A022C4F2020251
:103B800094450DD0B82207E040F2B842C4F20202D8
:103B9000944505D040F2A042C4F2020294451BD1E4
:103BA0006FF00F024AF6AB2352FA8CF2CAF6AA2340
:103BB000A2FB033146F64033C0F605035F2AC1F38A
:103BC00002115B5C40F2FF312CEA0101C36588BF42
:103BD00004318165084670472CF0FF01F9E70000C9
:103BE00070B540F26F44D0F800C0C4F20204D0F8BF
:103BF00058E0A44519DC9F25C4F20205AC4531DC30
:103C00005725C4F20205AC4556DC1025C4F2020566
:103C1000AC4500F092802825C4F20205AC4500F0C6
:103C20008C804025C4F2020584E045F22F45C5F69C
:103C30000205AC452BDC40F2B745C4F20205AC45A9
:103C400048DC40F27045C4F20205AC4575D040F244
:103C50008845C4F20205AC456FD040F2A045C4F2DD
:103C6000020567E040F22745C4F20205AC4540DC9E
:103C7000A025C4F20205AC455FD0B825C4F2020508
:103C8000AC455AD040F21045C4F2020552E045F26C
:103C90006B45C5F60205AC453CDC45F23045C5F642
:103CA0000205AC4549D045F24445C5F60205AC4590
:103CB00043D045F258453BE05825C4F20205AC45D7
:103CC0003BD07025C4F20205AC4536D08825C4F23D
:103CD00002052FE040F2B845C4F20205AC452CD0F5
:103CE00045F20845C5F60205AC4526D045F21C450F
:103CF0001EE040F22845C4F20205AC451DD040F25A
:103D00004045C4F20205AC4517D040F25845C4F214
:103D100002050FE045F26C45C5F60205AC450CD036
:103D200045F29445C5F60205AC4506D045F28045FE
:103D3000C5F60205AC4540F0D180456EC66E002E3A
:103D4000866E6E601CBFD0E91C566E60A44515DC03
:103D50009F24C4F20204A4452BDC5724C4F20204BD
:103D6000A4454EDC1024C4F20204A44576D02824D5
:103D7000C4F20204A44571D040246BE045F22F4404
:103D8000C5F60204A44527DC40F2B744C4F202049D
:103D9000A44542DC40F27044C4F20204A4455DD064
:103DA00040F28844C4F20204A44557D040F2A04433
:103DB00050E040F22744C4F20204A4453CDCA024B5
:103DC000C4F20204A44549D0B824C4F20204A445B4
:103DD00044D040F210443DE045F26B44C5F6020485
:103DE000A44553DC45F23044C5F60204A4455FD037
:103DF00045F24444C5F60204A44559D045F258445E
:103E000052E05824C4F20204A44527D07024C4F21E
:103E10000204A44522D088241CE040F2B844C4F235
:103E20000204A4451AD045F20844C5F60204A4458C
:103E30003ED045F21C4437E040F22844C4F202046C
:103E4000A4450BD040F24044C4F20204A44505D07E
:103E500040F25844C4F20204A4453FD18468C06DC6
:103E600000F01F003F2505FA00F0CEF80800DCF84E
:103E70000000402C20F48020CCF80000CCF8043066
:103E800023D0CCF80810CCF80C2070BD45F26C445F
:103E9000C5F60204A4450BD045F28044C5F60204E1
:103EA000A44505D045F29444C5F60204A44515D1B5
:103EB000C46D806804F01F040125402805FA04F44D
:103EC000CEF80440CCF8043004D1CCF80820CCF86B
:103ED0000C1070BDCCF80810CCF80C2070BD0000A0
:103EE00047F2C440C2F200000178012918BF7047B0
:103EF0000021017041F2040047F2BC42CEF2000002
:103F0000C2F2000247F2B443C2F200030168126831
:103F1000891A1A681144196047F2C0410068C2F258
:103F200000010860704700002DE9F04F81B02DEDD1
:103F3000068B86B0012A0C46054611D147F2D437CC
:103F400047F2D00940F2000A47F2D030C2F200072F
:103F5000C2F20009C2F2004AC2F20000039010E06F
:103F600046F2B87046F2BC7746F2B84946F2C07ADB
:103F7000C2F200000390C2F20007C2F20009C2F2CE
:103F8000000A43F0010044F6DC13C2F201030328E7
:103F900003F54C7142F66C1608BF03F23131002A6A
:103FA000C2F200060878029242F6601142F67812D8
:103FB000C2F20001C2F2000200EE100A42F65410F2
:103FC00008BF0A46C2F200002B46B8EE408A08BF7E
:103FD00006461078D2E90112CDE9009424F0D8FE0B
:103FE00030782B46D6E90112CDE9009424F0D0FEBA
:103FF00047F6CC4BA600C2F2000B29463246DBF84E
:10400000008008FB04F00AEB8000FDF7FFFA08F1DE
:1040100001003246022888BF002000FB04F1CBF8E3
:10402000000028460AEB8101FDF7F0FA0020049019
:1040300004AA4846214629F0E3F89DED040AB5EEAE
:10404000400AF1EE10FA06D141F26F209FED870A87
:10405000C3F683200490B5EE001A05A820EE010AED
:10406000B0EEC00A3DF064FC45F6396045F68001CB
:10407000C2F20100C2F201019DED051AB8EEC11AAB
:1040800000780978039B08435FEA006C44F6DC1073
:10409000C2F201003DD19FED762A90F923139FEDE6
:1040A000753AA0EE023A9FED742AA3EE002A9FED26
:1040B000733A31EE031AA2EE001A9FED710A21EE57
:1040C000000A01EE101A6FA1B8EEC11A93ED002A92
:1040D00030EE023A31EE433AB5EE403A23EE083A7A
:1040E000F1EE10FAC8BF043191ED004AA3EE042AA4
:1040F000B1EE083A31EE033A83ED002A32EE004A7F
:10410000B4EE434AF1EE10FA03DD31EE400A83EDDE
:10411000000A029E3EB9417800F12002002908BF42
:10412000021D517E79B1012E07D14178021D00296F
:1041300008BF00F12002517E29B1BCF1000F08D068
:104140009FED521A0EE04FF07E511960BCF1000F46
:10415000F6D1B3EE0E1A93ED000AB4EE410AF1EE79
:1041600010FA03DDB0EE410A83ED001A97ED001A54
:1041700031EE402AB5EE402AF1EE10FA0DD0B4EE41
:10418000401AF1EE10FA18DD03EE104AB1EE422AA1
:10419000B8EE433A82EE038A11E09FED3E1A20EE1C
:1041A000010A10EE100A3DF0EFFD00EE100A28465D
:1041B0002946224629F080F952E09FED358AB4EE77
:1041C000401AF1EE10FA07DA30EE410A01EE104A19
:1041D000B8EE411A80EE018A002C41D09FED2C0AE6
:1041E00000269FED2C9A18E097ED000A012630EE8C
:1041F000080A87ED000A97ED000A95ED00AA20EE67
:10420000090A10EE100A3DF0BFFD00EE100A013C55
:1042100020EE0A0AA5EC010A22D0B5EE400AF1EE22
:1042200010FA06DA95ED001AB5EE401AF1EE10FA22
:10423000DADCB5EE400AF1EE10FA0DDD95ED000A7C
:104240000020B5EE400AF1EE10FAB8BF012030436D
:104250000026C007C8D1CEE7F007C5D10026CAE7BF
:1042600006B0BDEC068B01B0BDE8F08F6F12833A4B
:10427000A8A19D3FF5CA83C0FBB3C040E09248C0EF
:10428000C2A8C040CDCC4C3D0AD7A33B000048C3D8
:10429000000000002D152A3E2DE9F04F83B00C9F41
:1042A0001D46002F16460C4680466FD044F6C21AB3
:1042B00047F20440C2F2010AC2F2000040F2004993
:1042C0000127C5F602098AF80070310981703101B1
:1042D00041704FF0000B80F800B044F647200021F9
:1042E000C2F2000001224B460097019713F0D4FE62
:1042F000002853D047F204400021C2F200000322FC
:104300004B460097019713F0C7FE00204146224616
:104310004B460097CDF804B013F0BEFE8DB34FF2BC
:104320003C690023C2F20049012000904846214622
:104330003246FFF7B1FF24B3C4F1000C621E002324
:1043400019F8030018F80310884240D19A4218D097
:1043500009EB030708EB030678787178884236D1B9
:104360000CEB0301881C0CD0B878B578A8422ED18C
:10437000C81C06D0F878F178884228D104339C42D2
:10438000DED1012700208AF8000026E047F6D14060
:10439000C2F20000007880B101271EE047F6D1404C
:1043A000C2F2000007700FA037F0C2FC14A0012178
:1043B0000CF05EFA8AF800B00FE044F6C210C2F2C8
:1043C0000100007800283FF471AF002705E00021CC
:1043D000002737F0D5FD8AF80070384603B0BDE8F5
:1043E000F08F00BF5B4552525D20454550524F4D06
:1043F000206E6F7420666F756E642E2E2E00000086
:10440000454550524F4D20696E6974206572726F38
:1044100072000000000000002DE9F04F83B047F665
:10442000D140C2F200000078002845D140F2004B94
:1044300042F694394AF27865C5F6020B4FF000084F
:104440000127C2F200090DF10B0AC2F20105002496
:104450008DF80B8002E000BFC72E2AD20021012276
:1044600048465B46264601340097019713F014FE38
:104470000020012251465B460097CDF8048013F0DE
:104480000BFE9DF80B00C00711D028682968091A97
:104490000229E1D22968091A01299EBF2968091A4F
:1044A0000129D9D82968091A0229EFD3D4E7C82CE1
:1044B00002D103A037F03CFC03B0BDE8F08F00BF91
:1044C0005B4552525D454550524F4D204C6F636BDA
:1044D0002077616974206572726F720000000000BD
:1044E0002DE9F04F85B047F6D143C2F200031B78A7
:1044F0000BB1012576E2144644F6C212C2F2010263
:104500000B46014600251078002840F06B824DF2E2
:104510003C650120C2F20045107028461A460493FB
:10452000FEF752F84EF66870049ACEF2000005F1DC
:104530002001BFF34F8F056047F20449016005F188
:104540004001016005F16001016005F18001016039
:1045500005F1A001016005F1C001016005F1E00174
:10456000016005F58071016005F59071016005F548
:10457000A071016005F5B071016005F5C0710160C1
:1045800005F5D071016005F5E071016005F5F07188
:10459000016005F50071016005F50871016005F520
:1045A0001071016005F51871016005F52071016059
:1045B00005F52871016005F53071016005F5387168
:1045C000016005F54071016005F54871016005F570
:1045D0005071016005F55871016005F56071016069
:1045E00005F56871016005F57071016005F5787178
:1045F000016005F58061016005F58461016005F5E4
:104600008861016005F58C61016005F590610160CC
:1046100005F59461016005F59861016005F59C61FF
:10462000016005F5A061016005F5A461016005F573
:10463000A861016005F5AC61016005F5B06101603C
:1046400005F5B461016005F5B861016005F5BC616F
:10465000016005F5C061016005F5C461016005F503
:10466000C861016005F5CC61016005F5D0610160AC
:1046700005F5D461016005F5D861016005F5DC61DF
:10468000016005F5E061016005F5E461016005F593
:10469000E861016005F5EC61016005F5F06101601C
:1046A00005F5F461016005F5F861016005F5FC614F
:1046B000016005F50061016005F50261016005F525
:1046C0000461016005F50661016005F5086101609E
:1046D00005F50A61016005F50C61016005F50E61E3
:1046E000016005F51061016005F51261016005F5D5
:1046F0001461016005F51661016005F5186101603E
:1047000005F51A61016005F51C61016005F51E6182
:10471000016005F52061016005F52261016005F584
:104720002461016005F52661016005F528610160DD
:1047300005F52A61016005F52C61016005F52E6122
:10474000016005F53061016005F53261016005F534
:104750003461016005F53661016005F5386101607D
:1047600005F53A61016005F53C61016005F53E61C2
:10477000016005F54061016005F54261016005F5E4
:104780004461016005F54661016005F5486101601D
:1047900005F54A61016005F54C61016005F54E6162
:1047A000016005F55061016005F55261016005F594
:1047B0005461016005F55661016005F558610160BD
:1047C00005F55A61016005F55C61016005F55E6102
:1047D000016005F56061016005F56261016005F544
:1047E0006461016005F56661016005F5686101605D
:1047F00005F56A61016005F56C61016005F56E61A2
:10480000016005F57061016005F57261016005F5F3
:104810007461016005F57661016005F578610160FC
:1048200005F57A61016005F57C61016005F57E6141
:10483000016040F20045BFF34F8FBFF36F8F100A46
:10484000C2F20009CDE902404FEA043A00244FF0D9
:10485000000B4FF000080126C5F602050AEB042004
:104860002B46A2EB04270122010C89F80210000A52
:1048700089F80100B9B244F60830B1F5807F4FF0F5
:104880000001C2F2000089F8008028BF4FF4807751
:104890000096CDF8048013F0FFFB44F6442000217D
:1048A0000122C2F200002B460096019613F0F4FBA1
:1048B0000021032248462B460096019613F0ECFB9C
:1048C0004DF23C600021C2F200402B4600EB042078
:1048D0000096BAB2CDF8048013F0DEFBFFF79CFD22
:1048E0000BF1010B03981FFA8BF4049AA042B5D286
:1048F0004EF23C68DDF808B0C2F200480120002307
:104900000090404611465A46FFF7C6FC04994DF206
:104910003C6AC2F2004A31B34E46C1F1000CA1F12B
:10492000010E002218F802301AF80270BB4222D1A0
:10493000964518D008EB02030AEB02075D787878F9
:10494000854218D10CEB0205A81C0CD09878BC78D5
:10495000A04210D1E81C06D0D878FB7898420AD142
:1049600004329142DED144F6C2100125C2F20100A8
:104970000021017036E044F6C21840F20047C2F24E
:10498000010801244FEA1B10C5F6020788F8004011
:104990000021B0704FEA0B10707044F60830C2F27C
:1049A000000001223B46002535700094019513F06C
:1049B00073FB44F648200021C2F2000001223B466E
:1049C0000094019413F068FB0021032230463B461B
:1049D0000094019513F060FBFFF71EFD88F800506E
:1049E00088F80050284605B0BDE8F08F00000000B0
:1049F00047F2C440C2F200000178012919D1002118
:104A0000017041F2040047F2BC42CEF20000C2F253
:104A1000000247F2B443C2F2000301681268891A27
:104A20001A681144196047F2C0410068C2F20001DF
:104A300008608820C5F600000168C90708BF7047F4
:104A4000012101601EF050BEB0B547F2C444C2F26D
:104A500000042078012819D10020207041F20400C0
:104A600047F2BC42CEF20000C2F2000247F2B44369
:104A7000C2F2000301681268891A1A6811441960A9
:104A800047F2C0410068C2F20001086088254FF477
:104A90008060C5F6000505F0A7FA2868000558BF34
:104AA000B0BD4FF4006028602078012819D10020A3
:104AB000207041F2040047F2BC42CEF20000C2F284
:104AC000000247F2B443C2F2000301681268891A77
:104AD0001A681144196047F2C0410068C2F200012F
:104AE00008604AF278604AF28431C2F20100C2F2F0
:104AF000010100680860B0BD47F2C440C2F2000086
:104B00000178012919D10021017041F2040047F216
:104B1000BC42CEF20000C2F2000247F2B443C2F23D
:104B2000000301681268891A1A681144196047F273
:104B3000C0410068C2F2000108608820C5F600008C
:104B40000168890758BF7047022101601EF0CCBD83
:104B500047F2C440C2F200000178012919D10021B6
:104B6000017041F2040047F2BC42CEF20000C2F2F2
:104B7000000247F2B443C2F2000301681268891AC6
:104B80001A681144196047F2C0410068C2F200017E
:104B90000860042005F028BA47F2C440C2F20000C1
:104BA0000178012919D10021017041F2040047F276
:104BB000BC42CEF20000C2F2000247F2B443C2F29D
:104BC000000301681268891A1A681144196047F2D3
:104BD000C0410068C2F2000108608820C5F60000EC
:104BE0000168C90616D51021016044F6AC50C2F226
:104BF00001000078002808BF704744F6DC10C2F2BC
:104C0000010000F120024178002908BF021D506810
:104C10000B2800D170471EF00FBE000000000000FE
:104C20002DE9F04F81B02DED0C8B42F6881047F640
:104C30008061C2F20000C0F20101046840F6004049
:104C4000C3F200002278FDF704FD227848F68020A8
:104C5000C3F201004FF47071FDF7FBFC44F6DC1267
:104C60004FF0660EC2F20102B6EE008A9FEDED0A29
:104C70000FF2F46192F85403B7EE004A9FEDEA5A3E
:104C800046F2223802289FEDE97A08BF4FF04C0E19
:104C900094F85890012808BF4FF0320ECC46B9F175
:104CA000000F18BF4FF0FF0CB9F1000FCEEB0E2331
:104CB0004FF00005C2F2010808FE001A022808BFE2
:104CC000043101289FEDDA0A91ED002A92F855038C
:104CD00000FE026A4FF4784AA0F1010BDFEDD50A1D
:104CE000DFEDD51A704621EE061A26EE055A36EE8D
:104CF000412A84EE013A84EE022A84EE064A26EE28
:104D0000076A9FEDCE7A65E001F0F8024FF4FC6689
:104D100006EAC10747EA0222C1F3C4010A4400BF00
:104D200028F8152006EE900AB4F85210B4F84C207A
:104D30000138FF3B891A05EE902A02EE901AF8EE30
:104D4000E22AB4F85410B4F84E70C91B03EE901A5E
:104D5000F8EEE33AB4F85610B4F85060891B04EE4C
:104D6000901AF8EEE44AF8EE655AF8EE666A62EEDA
:104D7000A62AE2EE845A63EEA62AFCEEE53A05EE98
:104D8000907AF8EE655A13EE902AE2EE845A64EEB9
:104D9000A62A0AEA0222FCEEE54A05EE906AF8EE3F
:104DA000655A14EE901AE2EE845A01F0FC0142EAD0
:104DB000C101FCEEE52A12EE906AC6F3C40211446A
:104DC00046F20022C2F2010222F815100135AE456A
:104DD00040F23681BBF1060F23D8DFE80BF0042543
:104DE00046657F99AA0002EE900AF8EE622AB4EEB8
:104DF000625AF1EE10FA40F3A88002EE903A4A4669
:104E0000B9F1000FF8EE622A62EE802A62EE842A7F
:104E1000FCEEE22A12EE901A18BFC1F1FF0217460B
:104E2000DBE04FF6FF727BE702EE900A4FF4784129
:104E3000F8EE622AB4EE621AF1EE10FA40F39880AE
:104E400002EE903AB9F1000FF8EE622A63EE222AE0
:104E5000FCEEE22A12EE908A00F0D180C8F1FF0247
:104E60004FF4784A4FF0FF08CCE002EE900AF8EEDB
:104E7000622AB4EE621AF1EE10FA40F38D8002EE6F
:104E8000903AB9F1000FF8EE622A63EE222AFCEEA6
:104E9000E22A12EE902A00F0A780C2F1FF01FF2261
:104EA000FF27C1F3C401A1E0AE45614662460AD3C3
:104EB000B3FBFEF24946FF26B9F1000F18BFC2F15D
:104EC000FF0118BF324601F0FC0702F0F802C1F3FF
:104ED000C40141EAC70141EA022221E7AE45614629
:104EE00062460AD3B3FBFEF24946FF26B9F1000F32
:104EF00018BFC2F1FF0118BF324601F0F80702F0F7
:104F0000FC02C1F3C40141EA072141EAC20207E7FA
:104F1000AE456146624609D3B3FBFEF7FF214A4620
:104F2000B9F1000F0CBF3946C7F1FF0202F0F807D4
:104F300055E0AE456146FFF4E7AEB3FBFEF1B9F1D3
:104F4000000F18BFC1F1FF01DEE6B4EE626AF1EEB8
:104F500010FA34DD72EEC52A62EE872A62EE842AE8
:104F6000FCEEE22A12EE902AC2F1FF01174634E06D
:104F700071EE622AF0EE613A4FF4784AB9F1000F0F
:104F800062EEA12AE2EE823AFCEEE32A12EE908A69
:104F9000424608BF4A4635E071EE622AF0EE613AB9
:104FA0000021B9F1000F62EEA12AE2EE823AFCEE96
:104FB000E32A12EE907A3A4608BFFF2216E076EE18
:104FC000622AF0EE613AFF27002162EEA02AE2EEAB
:104FD000843AFCEEE32A12EE902A07F0F80702F07A
:104FE000FC02C1F3C40105E00021174602F0FC02F7
:104FF00007F0F80741EAC20141EA072290E601EA18
:10500000082A002208F0FC0146F22238C2F3C4024A
:10501000C2F2010842EA0A024FF4784A42EAC102A7
:105020007EE600BFCDCC4C3E0AD7A33CD7A3F03ED2
:1050300000004842E990F04300007F430B680A44B7
:1050400044F6DC15C2F2010595F8500301285ED93B
:1050500046F6583142F61C44C0F60501C2F200047F
:1050600051F8200042F61041C2F20001A0608860B1
:1050700048684021FCF7BFFC60684021FCF7BBFC9E
:1050800095F850734FF48060B0FBF7F606FB07F01D
:10509000D0F5806036D107EB470048F24831C0F6C2
:1050A000040147F26C6A01EB800047F25428C2F217
:1050B000000AC2F201084488D0F8049040F6FC705F
:1050C000AAF80240CAF8049000EB840B4046594607
:1050D000FCF791FCCAF8088047F27868C2F2000831
:1050E00059468AF80070C8F8049048F26029C2F264
:1050F0000109A8F802404846FCF77DFCC8F8089072
:1051000088F800704BF68840C2F201000660B5EEE8
:10511000001A95F853034AF6842247F29C030021B3
:10512000C2F201029FED920AC0F605039FED912A9B
:1051300000279FED913A9FED914A9FED915A9FED87
:10514000916A9FED917ADFED910ADFED911ADFED23
:10515000912ADFED913ADFED914A35E005EE907A44
:10516000F0EE416AF8EE655AE5EE806AF6EEE65A30
:1051700076EEE55A65EE825AFCEEE56A75EE837AC4
:1051800016EE906AB1EB562F18BF002645FEA75ABF
:1051900006EE906A03EB8606D6ED017AF8EE666AB3
:1051A00076EEE55AD6ED006A76EEE77AE7EEA56A86
:1051B000F0EE485AE6EEC85AC2ED005A0137043202
:1051C000B7F5806F00F0B5800328C7D0022831D032
:1051D0000128F3D105EE907AF0EE416AF8EE655AB7
:1051E000E5EE846AF6EEE65A76EEE55A65EE825A08
:1051F000FCEEE56A75EE837A16EE906AB1EB562FF7
:1052000018BF002645FEA75A06EE906A03EB8606F5
:10521000D6ED017AF8EE666A76EEE55AD6ED006ACA
:1052200076EEE77AE7EEA56AF0EE645AE6EEA35A68
:10523000C2E700BF05EE907AF0EE416AF8EE655ADB
:10524000E5EE846AF6EEE67A76EEE76AF0EE417A0B
:10525000E5EE877A66EE826ABCEEE69AB6EEE7AADB
:1052600036EE83BA19EE106AB0EE419AA5EEA19A15
:1052700077EECA5AB1EB562F18BF002665EE825A58
:1052800007EE906AB6EEC9AA46FE8B6A03EB860665
:10529000F8EE677ABCEEE5CA39EE4A9A35EE83AA93
:1052A0001CEE105A76EEE76A29EE029AB1EB552F02
:1052B00018BF002545FE8A5A0BEE105A39EE03AA94
:1052C00003EB8505B8EE4BBABCEEC9CA75EECB5AF6
:1052D00095ED00BA1CEE104A95ED01CA3CEE4BCAA2
:1052E000B1EB542FACEE25BA18BF002449FE0A7A60
:1052F00096ED009A96ED01AA0DEE104A3AEE49AAF3
:1053000003EB8406B8EE4DDAD6ED015AAAEE269AE2
:1053100077EECD6AD6ED007A35EEE7AAF0EE465A82
:10532000E9EE055AEAEE267AEBEE205AE7EEA25AAB
:1053300042E740F6004047F68061C3F20000C0F249
:105340000101FCF795F94AF252000121C2F2000076
:1053500001704AF25300C2F200000170BDEC0C8BE8
:1053600001B0BDE8F08F00BF0000CC4200009842C1
:105370000000803A00000044000000C40820803A89
:105380002601FABE14AEB73E0820003BB4AB103E77
:105390000B30403B795D3FBC1F85EBBE713D0A3F42
:1053A00070B544F6DC140126C2F2010404F12001B8
:1053B0006078002808BF211D487E80F001054D76E9
:1053C000086801212DF088FB012807DBC1B28900A4
:1053D00051FA80F004EB800080F8525042F21060E5
:1053E000C2F20100467043F25930C2F20100067069
:1053F00070BD0000000000002DE9F04F81B042F2C6
:105400003C6042F21068C2F2010042F62C4A42F2BD
:10541000386942F6364B017842F6374E42F6384646
:1054200042F6344542F6324742F630440029C2F291
:105430000108C2F2000AC2F20109C2F2000BC2F274
:10544000000EC2F20006C2F20005C2F20007C2F26C
:10545000000445D044F66C3140F26C72C2F2000197
:10546000C2F201424AF264430A6044F67431C2F265
:10547000000144F67032C2F20002C2F201030A6077
:105480004AF25741C2F2010100220A704AF2654114
:10549000C2F20101097819700270012088F8000039
:1054A00088F8000088F8060088F8090088F80700E6
:1054B00088F8020088F8040088F80A0088F80B00D1
:1054C000FF20CAF80020C9F800208BF800008EF8F1
:1054D0000000307042F20F702880388020802EE06B
:1054E0000121017044F66C3040F64C42C2F20000DB
:1054F000C2F201425546CA46026044F67430C2F216
:10550000000044F66932C2F20002F14602604AF23B
:105510005740C2F2010001704AF26440C2F2010039
:105520001421017001202AF07FF901202AF07CF972
:10553000CE46D146AA4642F63445C2F200050120C5
:1055400088F8000088F8060088F8090088F8070045
:1055500088F8020088F8040088F80A0088F80B0030
:105560000020CAF80000C9F80000FF208BF80000F6
:105570008EF80000307042F20F7028803880208052
:1055800001B0BDE8F08F000070B544F6DC140126D0
:10559000C2F2010404F120016078002894F8F302BB
:1055A00008BF211D80F0010584F8F352086801212D
:1055B0002DF092FA012807DBC1B2890051FA80F080
:1055C00004EB800080F84D5042F21060C2F20100FE
:1055D000C67143F25930C2F20100067070BD00007E
:1055E00070B544F6DC140125C2F2010404F1200177
:1055F0006078002894F8F10208BF211D80F00106B0
:1056000084F8F162086801212DF066FA01280ADBAE
:10561000C1B2890051FA80F0D4F8EC1204EB80009A
:1056200080F84C60816442F210604CF20001C2F2DA
:105630000100C4F27941457043F25930C2F20100D1
:10564000057042F63C40C2F20000016042F6404064
:10565000C2F20000016042F64440C2F20000016064
:1056600042F64840C2F2000001604AF24840C2F2ED
:1056700001000021016070BDB0B52DED028B44F634
:10568000DC14B3EE0F2AC2F20104012504F120015B
:1056900094F8F00200EE100AB8EE400A94EDBB1A3E
:1056A000607831EE001AB4EE421AF1EE10FA30FED4
:1056B000018A002808BF211D84EDBB8A08680121EA
:1056C0002DF00AFA01280BDBC1B2890051FA80F0F3
:1056D00094F8F11204EB800080F84C1080ED128AEF
:1056E00042F210604CF20001C2F20100C4F27941B2
:1056F000457043F25930C2F20100057042F63C4059
:10570000C2F20000016042F64040C2F200000160B7
:1057100042F64440C2F20000016042F64840C2F244
:10572000000001604AF24840C2F20100002101601D
:10573000BDEC028BB0BD000044F6DC10C2F20100EB
:10574000417871B1016A4160416A8160816AC160DA
:10575000C16A0161016B4161416B8161816BC16112
:105760000DE04168016281684162C168816201693E
:10577000C1624169016381694163C169816342F228
:1057800010600121C2F201004170417143F25930B1
:10579000C2F2010001707047F0B581B045F6396082
:1057A0000125C2F2010044F6E851C2F2010144F6BB
:1057B000DC1605704AF27860C2F20100C2F20106FE
:1057C00006F12004371D0068086070782146002823
:1057D00080F0010018BF3946707008681EF0A0F80C
:1057E0007078002808BF3C46606821461EF02CFCFB
:1057F00042F2106043F25931C2F20100C2F20101DB
:105800004CF200024570C4F279424571C5710D70C9
:1058100043F25531C2F201010D7042F63C41C2F231
:1058200000010A6042F64041C2F200010A6042F6FD
:105830004441C2F200010A6042F64841C2F200014E
:105840000A604AF24841C2F2010100220A6044F6AD
:10585000DC51C2F201010A70FF21057085714572A9
:10586000C571857005718572C57242F62C40C2F211
:105870000000026042F23860C2F20100026042F6AB
:105880003640C2F20000017042F63740C2F200001A
:10589000017042F63840C2F20000017042F6344016
:1058A000C2F2000042F20F71018042F63240C2F2B1
:1058B0000000018042F63040C2F20000018001B0D9
:1058C000F0BD00000000000044F6DC10C2F2010050
:1058D00090F8051381F0010180F8051342F2106081
:1058E0000121C2F20100417043F25930C2F20100BD
:1058F00001707047000000002DE9F04381B044F6CC
:10590000DC170121C2F201074FF0010807F1200660
:1059100007F1040978783446002808BF4C4620680F
:105920002DF0DAF8421E50B2002848BF2122D1B231
:10593000480050FA82F347F65010C0F6040000EB1E
:10594000C3031B7983BB013A51B2002948BF21220E
:10595000D1B24B0053FA82F300EBC3031B791BBB9C
:10596000013A51B2002948BF2122D1B24B0053FA6B
:1059700082F300EBC3031B79B3B9013A51B200299A
:1059800048BF2122D1B24B0053FA82F300EBC3038C
:105990001B794BB9013A51B2002948BF2122D1B23B
:1059A0004B0053FA82F3CAE701EB8100214607EB73
:1059B0008005286C1DF0B4FF797895F84400002923
:1059C000314608BF49461EF03FFB95F84500A96CDB
:1059D00087F8E80295F84C00C7F8EC1244F69C51A1
:1059E00087F8F102B5F84E00A7F8590395F8500072
:1059F000C2F2010187F8400395F853004CF200020F
:105A0000087000217878C4F27942002808BF4E4619
:105A1000B5F85100308344F6EC50C2F20100017039
:105A200042F21060C2F2010080F8018080F8058027
:105A300042F63C40C2F20000026042F64040C2F230
:105A40000000026042F64440C2F20000026042F6EA
:105A50004840C2F2000002604AF24840C2F201002F
:105A6000016044F6DC50C2F20100017001B0BDE8F3
:105A7000F0830000000000002DE9F04381B044F6FF
:105A8000DC170121C2F201074FF0010807F12006DF
:105A900007F1040978783446002808BF4C4620688E
:105AA0002DF01AF8421C50B2212847F65010C8BFFA
:105AB0000022C0F6040051B201EB410300EBC30326
:105AC0001B7963BB013251B22129C8BF002251B2F8
:105AD00001EB410300EBC3031B7903BB013251B25D
